{
  "_format": "hh-sol-artifact-1",
  "contractName": "Lottery",
  "sourceName": "contracts/Lottery.sol",
  "abi": [
    {
      "inputs": [
        {
          "internalType": "address",
          "name": "vrfCoordinator",
          "type": "address"
        },
        {
          "internalType": "address",
          "name": "linkToken",
          "type": "address"
        },
        {
          "internalType": "bytes32",
          "name": "vrfKeyHash",
          "type": "bytes32"
        },
        {
          "internalType": "uint256",
          "name": "vrfFee",
          "type": "uint256"
        }
      ],
      "stateMutability": "nonpayable",
      "type": "constructor"
    },
    {
      "inputs": [
        {
          "internalType": "address",
          "name": "owner",
          "type": "address"
        }
      ],
      "name": "OwnableInvalidOwner",
      "type": "error"
    },
    {
      "inputs": [
        {
          "internalType": "address",
          "name": "account",
          "type": "address"
        }
      ],
      "name": "OwnableUnauthorizedAccount",
      "type": "error"
    },
    {
      "anonymous": false,
      "inputs": [
        {
          "indexed": false,
          "internalType": "uint256",
          "name": "gameId",
          "type": "uint256"
        },
        {
          "indexed": false,
          "internalType": "address",
          "name": "winner",
          "type": "address"
        },
        {
          "indexed": false,
          "internalType": "bytes32",
          "name": "requestId",
          "type": "bytes32"
        }
      ],
      "name": "GameEnded",
      "type": "event"
    },
    {
      "anonymous": false,
      "inputs": [
        {
          "indexed": false,
          "internalType": "uint256",
          "name": "gameId",
          "type": "uint256"
        },
        {
          "indexed": false,
          "internalType": "uint8",
          "name": "maxPlayers",
          "type": "uint8"
        },
        {
          "indexed": false,
          "internalType": "uint256",
          "name": "entryFee",
          "type": "uint256"
        }
      ],
      "name": "GameStarted",
      "type": "event"
    },
    {
      "anonymous": false,
      "inputs": [
        {
          "indexed": true,
          "internalType": "address",
          "name": "previousOwner",
          "type": "address"
        },
        {
          "indexed": true,
          "internalType": "address",
          "name": "newOwner",
          "type": "address"
        }
      ],
      "name": "OwnershipTransferred",
      "type": "event"
    },
    {
      "anonymous": false,
      "inputs": [
        {
          "indexed": false,
          "internalType": "uint256",
          "name": "gameId",
          "type": "uint256"
        },
        {
          "indexed": false,
          "internalType": "address",
          "name": "player",
          "type": "address"
        }
      ],
      "name": "PlayerJoined",
      "type": "event"
    },
    {
      "stateMutability": "payable",
      "type": "fallback"
    },
    {
      "inputs": [],
      "name": "fee",
      "outputs": [
        {
          "internalType": "uint256",
          "name": "",
          "type": "uint256"
        }
      ],
      "stateMutability": "view",
      "type": "function"
    },
    {
      "inputs": [],
      "name": "gameId",
      "outputs": [
        {
          "internalType": "uint256",
          "name": "",
          "type": "uint256"
        }
      ],
      "stateMutability": "view",
      "type": "function"
    },
    {
      "inputs": [],
      "name": "gameStarted",
      "outputs": [
        {
          "internalType": "bool",
          "name": "",
          "type": "bool"
        }
      ],
      "stateMutability": "view",
      "type": "function"
    },
    {
      "inputs": [],
      "name": "joinGame",
      "outputs": [],
      "stateMutability": "payable",
      "type": "function"
    },
    {
      "inputs": [],
      "name": "keyHash",
      "outputs": [
        {
          "internalType": "bytes32",
          "name": "",
          "type": "bytes32"
        }
      ],
      "stateMutability": "view",
      "type": "function"
    },
    {
      "inputs": [],
      "name": "owner",
      "outputs": [
        {
          "internalType": "address",
          "name": "",
          "type": "address"
        }
      ],
      "stateMutability": "view",
      "type": "function"
    },
    {
      "inputs": [
        {
          "internalType": "uint256",
          "name": "",
          "type": "uint256"
        }
      ],
      "name": "players",
      "outputs": [
        {
          "internalType": "address",
          "name": "",
          "type": "address"
        }
      ],
      "stateMutability": "view",
      "type": "function"
    },
    {
      "inputs": [
        {
          "internalType": "bytes32",
          "name": "requestId",
          "type": "bytes32"
        },
        {
          "internalType": "uint256",
          "name": "randomness",
          "type": "uint256"
        }
      ],
      "name": "rawFulfillRandomness",
      "outputs": [],
      "stateMutability": "nonpayable",
      "type": "function"
    },
    {
      "inputs": [],
      "name": "renounceOwnership",
      "outputs": [],
      "stateMutability": "nonpayable",
      "type": "function"
    },
    {
      "inputs": [
        {
          "internalType": "uint8",
          "name": "_maxPlayers",
          "type": "uint8"
        },
        {
          "internalType": "uint256",
          "name": "_entryFee",
          "type": "uint256"
        }
      ],
      "name": "startGame",
      "outputs": [],
      "stateMutability": "nonpayable",
      "type": "function"
    },
    {
      "inputs": [
        {
          "internalType": "address",
          "name": "newOwner",
          "type": "address"
        }
      ],
      "name": "transferOwnership",
      "outputs": [],
      "stateMutability": "nonpayable",
      "type": "function"
    },
    {
      "stateMutability": "payable",
      "type": "receive"
    }
  ],
  "bytecode": "0x60c06040523480156200001157600080fd5b5060405162001b5238038062001b52833981810160405281019062000037919062000304565b3384848173ffffffffffffffffffffffffffffffffffffffff1660a08173ffffffffffffffffffffffffffffffffffffffff16815250508073ffffffffffffffffffffffffffffffffffffffff1660808173ffffffffffffffffffffffffffffffffffffffff16815250505050600073ffffffffffffffffffffffffffffffffffffffff168173ffffffffffffffffffffffffffffffffffffffff1603620001195760006040517f1e4fbdf700000000000000000000000000000000000000000000000000000000815260040162000110919062000387565b60405180910390fd5b6200012a816200015e60201b60201c565b5081600381905550806002819055506000600560016101000a81548160ff02191690831515021790555050505050620003a4565b6000600160009054906101000a900473ffffffffffffffffffffffffffffffffffffffff16905081600160006101000a81548173ffffffffffffffffffffffffffffffffffffffff021916908373ffffffffffffffffffffffffffffffffffffffff1602179055508173ffffffffffffffffffffffffffffffffffffffff168173ffffffffffffffffffffffffffffffffffffffff167f8be0079c531659141344cd1fd0a4f28419497f9722a3daafe3b4186f6b6457e060405160405180910390a35050565b600080fd5b600073ffffffffffffffffffffffffffffffffffffffff82169050919050565b6000620002568262000229565b9050919050565b620002688162000249565b81146200027457600080fd5b50565b60008151905062000288816200025d565b92915050565b6000819050919050565b620002a3816200028e565b8114620002af57600080fd5b50565b600081519050620002c38162000298565b92915050565b6000819050919050565b620002de81620002c9565b8114620002ea57600080fd5b50565b600081519050620002fe81620002d3565b92915050565b6000806000806080858703121562000321576200032062000224565b5b6000620003318782880162000277565b9450506020620003448782880162000277565b93505060406200035787828801620002b2565b92505060606200036a87828801620002ed565b91505092959194509250565b620003818162000249565b82525050565b60006020820190506200039e600083018462000376565b92915050565b60805160a05161177a620003d8600039600081816102b20152610b110152600081816109dd0152610ad5015261177a6000f3fe6080604052600436106100a05760003560e01c8063d4f77b1c11610064578063d4f77b1c1461016a578063d7c81b5514610174578063ddca3f431461019f578063e849c38e146101ca578063f2fde38b146101f3578063f71d96cb1461021c576100a7565b80635e123ce4146100a957806361728f39146100d4578063715018a6146100ff5780638da5cb5b1461011657806394985ddd14610141576100a7565b366100a757005b005b3480156100b557600080fd5b506100be610259565b6040516100cb9190610ce9565b60405180910390f35b3480156100e057600080fd5b506100e961026c565b6040516100f69190610d1d565b60405180910390f35b34801561010b57600080fd5b50610114610272565b005b34801561012257600080fd5b5061012b610286565b6040516101389190610d79565b60405180910390f35b34801561014d57600080fd5b5061016860048036038101906101639190610dfb565b6102b0565b005b61017261034c565b005b34801561018057600080fd5b50610189610500565b6040516101969190610e4a565b60405180910390f35b3480156101ab57600080fd5b506101b4610506565b6040516101c19190610e4a565b60405180910390f35b3480156101d657600080fd5b506101f160048036038101906101ec9190610e9e565b61050c565b005b3480156101ff57600080fd5b5061021a60048036038101906102159190610f0a565b610661565b005b34801561022857600080fd5b50610243600480360381019061023e9190610f37565b6106e7565b6040516102509190610d79565b60405180910390f35b600560019054906101000a900460ff1681565b60035481565b61027a610726565b61028460006107ad565b565b6000600160009054906101000a900473ffffffffffffffffffffffffffffffffffffffff16905090565b7f000000000000000000000000000000000000000000000000000000000000000073ffffffffffffffffffffffffffffffffffffffff163373ffffffffffffffffffffffffffffffffffffffff161461033e576040517f08c379a000000000000000000000000000000000000000000000000000000000815260040161033590610fc1565b60405180910390fd5b6103488282610873565b5050565b600560019054906101000a900460ff1661039b576040517f08c379a00000000000000000000000000000000000000000000000000000000081526004016103929061102d565b60405180910390fd5b60065434146103df576040517f08c379a00000000000000000000000000000000000000000000000000000000081526004016103d6906110bf565b60405180910390fd5b600560009054906101000a900460ff1660ff1660048054905010610438576040517f08c379a000000000000000000000000000000000000000000000000000000000815260040161042f9061112b565b60405180910390fd5b6004339080600181540180825580915050600190039060005260206000200160009091909190916101000a81548173ffffffffffffffffffffffffffffffffffffffff021916908373ffffffffffffffffffffffffffffffffffffffff1602179055507f87969bc7faf902221a147b95ceba76e011c5efb0339a0a8ee7a2bb82d9cfbbd6600754336040516104ce92919061114b565b60405180910390a1600560009054906101000a900460ff1660ff16600480549050036104fe576104fc6109d6565b505b565b60075481565b60025481565b610514610726565b600560019054906101000a900460ff1615610564576040517f08c379a000000000000000000000000000000000000000000000000000000000815260040161055b906111c0565b60405180910390fd5b60008260ff16116105aa576040517f08c379a00000000000000000000000000000000000000000000000000000000081526004016105a190611252565b60405180910390fd5b600460006105b89190610c90565b81600560006101000a81548160ff021916908360ff1602179055506001600560016101000a81548160ff0219169083151502179055508060068190555060016007600082825461060891906112a1565b925050819055507f10a7675bf1b19b67834ca5a59866847fd31c62cdfc8e9466039e6b8e088e15ae600754600560009054906101000a900460ff16600654604051610655939291906112e4565b60405180910390a15050565b610669610726565b600073ffffffffffffffffffffffffffffffffffffffff168173ffffffffffffffffffffffffffffffffffffffff16036106db5760006040517f1e4fbdf70000000000000000000000000000000000000000000000000000000081526004016106d29190610d79565b60405180910390fd5b6106e4816107ad565b50565b600481815481106106f757600080fd5b906000526020600020016000915054906101000a900473ffffffffffffffffffffffffffffffffffffffff1681565b61072e610ac9565b73ffffffffffffffffffffffffffffffffffffffff1661074c610286565b73ffffffffffffffffffffffffffffffffffffffff16146107ab5761076f610ac9565b6040517f118cdaa70000000000000000000000000000000000000000000000000000000081526004016107a29190610d79565b60405180910390fd5b565b6000600160009054906101000a900473ffffffffffffffffffffffffffffffffffffffff16905081600160006101000a81548173ffffffffffffffffffffffffffffffffffffffff021916908373ffffffffffffffffffffffffffffffffffffffff1602179055508173ffffffffffffffffffffffffffffffffffffffff168173ffffffffffffffffffffffffffffffffffffffff167f8be0079c531659141344cd1fd0a4f28419497f9722a3daafe3b4186f6b6457e060405160405180910390a35050565b600060048054905082610886919061134a565b905060006004828154811061089e5761089d61137b565b5b9060005260206000200160009054906101000a900473ffffffffffffffffffffffffffffffffffffffff16905060008173ffffffffffffffffffffffffffffffffffffffff16476040516108f1906113db565b60006040518083038185875af1925050503d806000811461092e576040519150601f19603f3d011682016040523d82523d6000602084013e610933565b606091505b5050905080610977576040517f08c379a000000000000000000000000000000000000000000000000000000000815260040161096e9061143c565b60405180910390fd5b7fd2da138ec4b828f6f1dd931eea0488e41e941f7cda657ad8f524ede8cb2c7ce060075483876040516109ac9392919061145c565b60405180910390a16000600560016101000a81548160ff0219169083151502179055505050505050565b60006002547f000000000000000000000000000000000000000000000000000000000000000073ffffffffffffffffffffffffffffffffffffffff166370a08231306040518263ffffffff1660e01b8152600401610a349190610d79565b602060405180830381865afa158015610a51573d6000803e3d6000fd5b505050506040513d601f19601f82011682018060405250810190610a7591906114a8565b1015610ab6576040517f08c379a0000000000000000000000000000000000000000000000000000000008152600401610aad90611521565b60405180910390fd5b610ac4600354600254610ad1565b905090565b600033905090565b60007f000000000000000000000000000000000000000000000000000000000000000073ffffffffffffffffffffffffffffffffffffffff16634000aea07f000000000000000000000000000000000000000000000000000000000000000084866000604051602001610b45929190611541565b6040516020818303038152906040526040518463ffffffff1660e01b8152600401610b72939291906115fa565b6020604051808303816000875af1158015610b91573d6000803e3d6000fd5b505050506040513d601f19601f82011682018060405250810190610bb59190611664565b506000610bd78460003060008089815260200190815260200160002054610c21565b9050600160008086815260200190815260200160002054610bf891906112a1565b60008086815260200190815260200160002081905550610c188482610c5d565b91505092915050565b600084848484604051602001610c3a9493929190611691565b6040516020818303038152906040528051906020012060001c9050949350505050565b60008282604051602001610c72929190611718565b60405160208183030381529060405280519060200120905092915050565b5080546000825590600052602060002090810190610cae9190610cb1565b50565b5b80821115610cca576000816000905550600101610cb2565b5090565b60008115159050919050565b610ce381610cce565b82525050565b6000602082019050610cfe6000830184610cda565b92915050565b6000819050919050565b610d1781610d04565b82525050565b6000602082019050610d326000830184610d0e565b92915050565b600073ffffffffffffffffffffffffffffffffffffffff82169050919050565b6000610d6382610d38565b9050919050565b610d7381610d58565b82525050565b6000602082019050610d8e6000830184610d6a565b92915050565b600080fd5b610da281610d04565b8114610dad57600080fd5b50565b600081359050610dbf81610d99565b92915050565b6000819050919050565b610dd881610dc5565b8114610de357600080fd5b50565b600081359050610df581610dcf565b92915050565b60008060408385031215610e1257610e11610d94565b5b6000610e2085828601610db0565b9250506020610e3185828601610de6565b9150509250929050565b610e4481610dc5565b82525050565b6000602082019050610e5f6000830184610e3b565b92915050565b600060ff82169050919050565b610e7b81610e65565b8114610e8657600080fd5b50565b600081359050610e9881610e72565b92915050565b60008060408385031215610eb557610eb4610d94565b5b6000610ec385828601610e89565b9250506020610ed485828601610de6565b9150509250929050565b610ee781610d58565b8114610ef257600080fd5b50565b600081359050610f0481610ede565b92915050565b600060208284031215610f2057610f1f610d94565b5b6000610f2e84828501610ef5565b91505092915050565b600060208284031215610f4d57610f4c610d94565b5b6000610f5b84828501610de6565b91505092915050565b600082825260208201905092915050565b7f4f6e6c7920565246436f6f7264696e61746f722063616e2066756c66696c6c00600082015250565b6000610fab601f83610f64565b9150610fb682610f75565b602082019050919050565b60006020820190508181036000830152610fda81610f9e565b9050919050565b7f47616d6520686173206e6f74206265656e207374617274656420796574000000600082015250565b6000611017601d83610f64565b915061102282610fe1565b602082019050919050565b600060208201905081810360008301526110468161100a565b9050919050565b7f56616c75652073656e74206973206e6f7420657175616c20746f20656e74727960008201527f4665650000000000000000000000000000000000000000000000000000000000602082015250565b60006110a9602383610f64565b91506110b48261104d565b604082019050919050565b600060208201905081810360008301526110d88161109c565b9050919050565b7f47616d652069732066756c6c0000000000000000000000000000000000000000600082015250565b6000611115600c83610f64565b9150611120826110df565b602082019050919050565b6000602082019050818103600083015261114481611108565b9050919050565b60006040820190506111606000830185610e3b565b61116d6020830184610d6a565b9392505050565b7f47616d652069732063757272656e746c792072756e6e696e6700000000000000600082015250565b60006111aa601983610f64565b91506111b582611174565b602082019050919050565b600060208201905081810360008301526111d98161119d565b9050919050565b7f596f752063616e6e6f742063726561746520612067616d652077697468206d6160008201527f7820706c6179657273206c696d697420657175616c2030000000000000000000602082015250565b600061123c603783610f64565b9150611247826111e0565b604082019050919050565b6000602082019050818103600083015261126b8161122f565b9050919050565b7f4e487b7100000000000000000000000000000000000000000000000000000000600052601160045260246000fd5b60006112ac82610dc5565b91506112b783610dc5565b92508282019050808211156112cf576112ce611272565b5b92915050565b6112de81610e65565b82525050565b60006060820190506112f96000830186610e3b565b61130660208301856112d5565b6113136040830184610e3b565b949350505050565b7f4e487b7100000000000000000000000000000000000000000000000000000000600052601260045260246000fd5b600061135582610dc5565b915061136083610dc5565b9250826113705761136f61131b565b5b828206905092915050565b7f4e487b7100000000000000000000000000000000000000000000000000000000600052603260045260246000fd5b600081905092915050565b50565b60006113c56000836113aa565b91506113d0826113b5565b600082019050919050565b60006113e6826113b8565b9150819050919050565b7f4661696c656420746f2073656e64204574686572000000000000000000000000600082015250565b6000611426601483610f64565b9150611431826113f0565b602082019050919050565b6000602082019050818103600083015261145581611419565b9050919050565b60006060820190506114716000830186610e3b565b61147e6020830185610d6a565b61148b6040830184610d0e565b949350505050565b6000815190506114a281610dcf565b92915050565b6000602082840312156114be576114bd610d94565b5b60006114cc84828501611493565b91505092915050565b7f4e6f7420656e6f756768204c494e4b0000000000000000000000000000000000600082015250565b600061150b600f83610f64565b9150611516826114d5565b602082019050919050565b6000602082019050818103600083015261153a816114fe565b9050919050565b60006040820190506115566000830185610d0e565b6115636020830184610e3b565b9392505050565b600081519050919050565b600082825260208201905092915050565b60005b838110156115a4578082015181840152602081019050611589565b60008484015250505050565b6000601f19601f8301169050919050565b60006115cc8261156a565b6115d68185611575565b93506115e6818560208601611586565b6115ef816115b0565b840191505092915050565b600060608201905061160f6000830186610d6a565b61161c6020830185610e3b565b818103604083015261162e81846115c1565b9050949350505050565b61164181610cce565b811461164c57600080fd5b50565b60008151905061165e81611638565b92915050565b60006020828403121561167a57611679610d94565b5b60006116888482850161164f565b91505092915050565b60006080820190506116a66000830187610d0e565b6116b36020830186610e3b565b6116c06040830185610d6a565b6116cd6060830184610e3b565b95945050505050565b6000819050919050565b6116f16116ec82610d04565b6116d6565b82525050565b6000819050919050565b61171261170d82610dc5565b6116f7565b82525050565b600061172482856116e0565b6020820191506117348284611701565b602082019150819050939250505056fea26469706673582212206ae24fadb9fb8611c04777bf0c2e888e6bd56cb154d6abe45db9fa91a9fb4f6164736f6c63430008140033",
  "linkReferences": {},
  "deployedLinkReferences": {}
}