{"contracts/Lottery.sol":{"Lottery":{"abi":[{"inputs":[{"internalType":"address","name":"vrfCoordinator","type":"address"},{"internalType":"address","name":"linkToken","type":"address"},{"internalType":"bytes32","name":"vrfKeyHash","type":"bytes32"},{"internalType":"uint256","name":"vrfFee","type":"uint256"}],"stateMutability":"nonpayable","type":"constructor"},{"inputs":[{"internalType":"address","name":"owner","type":"address"}],"name":"OwnableInvalidOwner","type":"error"},{"inputs":[{"internalType":"address","name":"account","type":"address"}],"name":"OwnableUnauthorizedAccount","type":"error"},{"anonymous":false,"inputs":[{"indexed":false,"internalType":"uint256","name":"gameId","type":"uint256"},{"indexed":false,"internalType":"address","name":"winner","type":"address"},{"indexed":false,"internalType":"bytes32","name":"requestId","type":"bytes32"}],"name":"GameEnded","type":"event"},{"anonymous":false,"inputs":[{"indexed":false,"internalType":"uint256","name":"gameId","type":"uint256"},{"indexed":false,"internalType":"uint8","name":"maxPlayers","type":"uint8"},{"indexed":false,"internalType":"uint256","name":"entryFee","type":"uint256"}],"name":"GameStarted","type":"event"},{"anonymous":false,"inputs":[{"indexed":true,"internalType":"address","name":"previousOwner","type":"address"},{"indexed":true,"internalType":"address","name":"newOwner","type":"address"}],"name":"OwnershipTransferred","type":"event"},{"anonymous":false,"inputs":[{"indexed":false,"internalType":"uint256","name":"gameId","type":"uint256"},{"indexed":false,"internalType":"address","name":"player","type":"address"}],"name":"PlayerJoined","type":"event"},{"stateMutability":"payable","type":"fallback"},{"inputs":[],"name":"fee","outputs":[{"internalType":"uint256","name":"","type":"uint256"}],"stateMutability":"view","type":"function"},{"inputs":[],"name":"gameId","outputs":[{"internalType":"uint256","name":"","type":"uint256"}],"stateMutability":"view","type":"function"},{"inputs":[],"name":"gameStarted","outputs":[{"internalType":"bool","name":"","type":"bool"}],"stateMutability":"view","type":"function"},{"inputs":[],"name":"joinGame","outputs":[],"stateMutability":"payable","type":"function"},{"inputs":[],"name":"keyHash","outputs":[{"internalType":"bytes32","name":"","type":"bytes32"}],"stateMutability":"view","type":"function"},{"inputs":[],"name":"owner","outputs":[{"internalType":"address","name":"","type":"address"}],"stateMutability":"view","type":"function"},{"inputs":[{"internalType":"uint256","name":"","type":"uint256"}],"name":"players","outputs":[{"internalType":"address","name":"","type":"address"}],"stateMutability":"view","type":"function"},{"inputs":[{"internalType":"bytes32","name":"requestId","type":"bytes32"},{"internalType":"uint256","name":"randomness","type":"uint256"}],"name":"rawFulfillRandomness","outputs":[],"stateMutability":"nonpayable","type":"function"},{"inputs":[],"name":"renounceOwnership","outputs":[],"stateMutability":"nonpayable","type":"function"},{"inputs":[{"internalType":"uint8","name":"_maxPlayers","type":"uint8"},{"internalType":"uint256","name":"_entryFee","type":"uint256"}],"name":"startGame","outputs":[],"stateMutability":"nonpayable","type":"function"},{"inputs":[{"internalType":"address","name":"newOwner","type":"address"}],"name":"transferOwnership","outputs":[],"stateMutability":"nonpayable","type":"function"},{"stateMutability":"payable","type":"receive"}],"evm":{"bytecode":{"linkReferences":{},"object":"60c06040523480156200001157600080fd5b5060405162001b5238038062001b52833981810160405281019062000037919062000304565b3384848173ffffffffffffffffffffffffffffffffffffffff1660a08173ffffffffffffffffffffffffffffffffffffffff16815250508073ffffffffffffffffffffffffffffffffffffffff1660808173ffffffffffffffffffffffffffffffffffffffff16815250505050600073ffffffffffffffffffffffffffffffffffffffff168173ffffffffffffffffffffffffffffffffffffffff1603620001195760006040517f1e4fbdf700000000000000000000000000000000000000000000000000000000815260040162000110919062000387565b60405180910390fd5b6200012a816200015e60201b60201c565b5081600381905550806002819055506000600560016101000a81548160ff02191690831515021790555050505050620003a4565b6000600160009054906101000a900473ffffffffffffffffffffffffffffffffffffffff16905081600160006101000a81548173ffffffffffffffffffffffffffffffffffffffff021916908373ffffffffffffffffffffffffffffffffffffffff1602179055508173ffffffffffffffffffffffffffffffffffffffff168173ffffffffffffffffffffffffffffffffffffffff167f8be0079c531659141344cd1fd0a4f28419497f9722a3daafe3b4186f6b6457e060405160405180910390a35050565b600080fd5b600073ffffffffffffffffffffffffffffffffffffffff82169050919050565b6000620002568262000229565b9050919050565b620002688162000249565b81146200027457600080fd5b50565b60008151905062000288816200025d565b92915050565b6000819050919050565b620002a3816200028e565b8114620002af57600080fd5b50565b600081519050620002c38162000298565b92915050565b6000819050919050565b620002de81620002c9565b8114620002ea57600080fd5b50565b600081519050620002fe81620002d3565b92915050565b6000806000806080858703121562000321576200032062000224565b5b6000620003318782880162000277565b9450506020620003448782880162000277565b93505060406200035787828801620002b2565b92505060606200036a87828801620002ed565b91505092959194509250565b620003818162000249565b82525050565b60006020820190506200039e600083018462000376565b92915050565b60805160a05161177a620003d8600039600081816102b20152610b110152600081816109dd0152610ad5015261177a6000f3fe6080604052600436106100a05760003560e01c8063d4f77b1c11610064578063d4f77b1c1461016a578063d7c81b5514610174578063ddca3f431461019f578063e849c38e146101ca578063f2fde38b146101f3578063f71d96cb1461021c576100a7565b80635e123ce4146100a957806361728f39146100d4578063715018a6146100ff5780638da5cb5b1461011657806394985ddd14610141576100a7565b366100a757005b005b3480156100b557600080fd5b506100be610259565b6040516100cb9190610ce9565b60405180910390f35b3480156100e057600080fd5b506100e961026c565b6040516100f69190610d1d565b60405180910390f35b34801561010b57600080fd5b50610114610272565b005b34801561012257600080fd5b5061012b610286565b6040516101389190610d79565b60405180910390f35b34801561014d57600080fd5b5061016860048036038101906101639190610dfb565b6102b0565b005b61017261034c565b005b34801561018057600080fd5b50610189610500565b6040516101969190610e4a565b60405180910390f35b3480156101ab57600080fd5b506101b4610506565b6040516101c19190610e4a565b60405180910390f35b3480156101d657600080fd5b506101f160048036038101906101ec9190610e9e565b61050c565b005b3480156101ff57600080fd5b5061021a60048036038101906102159190610f0a565b610661565b005b34801561022857600080fd5b50610243600480360381019061023e9190610f37565b6106e7565b6040516102509190610d79565b60405180910390f35b600560019054906101000a900460ff1681565b60035481565b61027a610726565b61028460006107ad565b565b6000600160009054906101000a900473ffffffffffffffffffffffffffffffffffffffff16905090565b7f000000000000000000000000000000000000000000000000000000000000000073ffffffffffffffffffffffffffffffffffffffff163373ffffffffffffffffffffffffffffffffffffffff161461033e576040517f08c379a000000000000000000000000000000000000000000000000000000000815260040161033590610fc1565b60405180910390fd5b6103488282610873565b5050565b600560019054906101000a900460ff1661039b576040517f08c379a00000000000000000000000000000000000000000000000000000000081526004016103929061102d565b60405180910390fd5b60065434146103df576040517f08c379a00000000000000000000000000000000000000000000000000000000081526004016103d6906110bf565b60405180910390fd5b600560009054906101000a900460ff1660ff1660048054905010610438576040517f08c379a000000000000000000000000000000000000000000000000000000000815260040161042f9061112b565b60405180910390fd5b6004339080600181540180825580915050600190039060005260206000200160009091909190916101000a81548173ffffffffffffffffffffffffffffffffffffffff021916908373ffffffffffffffffffffffffffffffffffffffff1602179055507f87969bc7faf902221a147b95ceba76e011c5efb0339a0a8ee7a2bb82d9cfbbd6600754336040516104ce92919061114b565b60405180910390a1600560009054906101000a900460ff1660ff16600480549050036104fe576104fc6109d6565b505b565b60075481565b60025481565b610514610726565b600560019054906101000a900460ff1615610564576040517f08c379a000000000000000000000000000000000000000000000000000000000815260040161055b906111c0565b60405180910390fd5b60008260ff16116105aa576040517f08c379a00000000000000000000000000000000000000000000000000000000081526004016105a190611252565b60405180910390fd5b600460006105b89190610c90565b81600560006101000a81548160ff021916908360ff1602179055506001600560016101000a81548160ff0219169083151502179055508060068190555060016007600082825461060891906112a1565b925050819055507f10a7675bf1b19b67834ca5a59866847fd31c62cdfc8e9466039e6b8e088e15ae600754600560009054906101000a900460ff16600654604051610655939291906112e4565b60405180910390a15050565b610669610726565b600073ffffffffffffffffffffffffffffffffffffffff168173ffffffffffffffffffffffffffffffffffffffff16036106db5760006040517f1e4fbdf70000000000000000000000000000000000000000000000000000000081526004016106d29190610d79565b60405180910390fd5b6106e4816107ad565b50565b600481815481106106f757600080fd5b906000526020600020016000915054906101000a900473ffffffffffffffffffffffffffffffffffffffff1681565b61072e610ac9565b73ffffffffffffffffffffffffffffffffffffffff1661074c610286565b73ffffffffffffffffffffffffffffffffffffffff16146107ab5761076f610ac9565b6040517f118cdaa70000000000000000000000000000000000000000000000000000000081526004016107a29190610d79565b60405180910390fd5b565b6000600160009054906101000a900473ffffffffffffffffffffffffffffffffffffffff16905081600160006101000a81548173ffffffffffffffffffffffffffffffffffffffff021916908373ffffffffffffffffffffffffffffffffffffffff1602179055508173ffffffffffffffffffffffffffffffffffffffff168173ffffffffffffffffffffffffffffffffffffffff167f8be0079c531659141344cd1fd0a4f28419497f9722a3daafe3b4186f6b6457e060405160405180910390a35050565b600060048054905082610886919061134a565b905060006004828154811061089e5761089d61137b565b5b9060005260206000200160009054906101000a900473ffffffffffffffffffffffffffffffffffffffff16905060008173ffffffffffffffffffffffffffffffffffffffff16476040516108f1906113db565b60006040518083038185875af1925050503d806000811461092e576040519150601f19603f3d011682016040523d82523d6000602084013e610933565b606091505b5050905080610977576040517f08c379a000000000000000000000000000000000000000000000000000000000815260040161096e9061143c565b60405180910390fd5b7fd2da138ec4b828f6f1dd931eea0488e41e941f7cda657ad8f524ede8cb2c7ce060075483876040516109ac9392919061145c565b60405180910390a16000600560016101000a81548160ff0219169083151502179055505050505050565b60006002547f000000000000000000000000000000000000000000000000000000000000000073ffffffffffffffffffffffffffffffffffffffff166370a08231306040518263ffffffff1660e01b8152600401610a349190610d79565b602060405180830381865afa158015610a51573d6000803e3d6000fd5b505050506040513d601f19601f82011682018060405250810190610a7591906114a8565b1015610ab6576040517f08c379a0000000000000000000000000000000000000000000000000000000008152600401610aad90611521565b60405180910390fd5b610ac4600354600254610ad1565b905090565b600033905090565b60007f000000000000000000000000000000000000000000000000000000000000000073ffffffffffffffffffffffffffffffffffffffff16634000aea07f000000000000000000000000000000000000000000000000000000000000000084866000604051602001610b45929190611541565b6040516020818303038152906040526040518463ffffffff1660e01b8152600401610b72939291906115fa565b6020604051808303816000875af1158015610b91573d6000803e3d6000fd5b505050506040513d601f19601f82011682018060405250810190610bb59190611664565b506000610bd78460003060008089815260200190815260200160002054610c21565b9050600160008086815260200190815260200160002054610bf891906112a1565b60008086815260200190815260200160002081905550610c188482610c5d565b91505092915050565b600084848484604051602001610c3a9493929190611691565b6040516020818303038152906040528051906020012060001c9050949350505050565b60008282604051602001610c72929190611718565b60405160208183030381529060405280519060200120905092915050565b5080546000825590600052602060002090810190610cae9190610cb1565b50565b5b80821115610cca576000816000905550600101610cb2565b5090565b60008115159050919050565b610ce381610cce565b82525050565b6000602082019050610cfe6000830184610cda565b92915050565b6000819050919050565b610d1781610d04565b82525050565b6000602082019050610d326000830184610d0e565b92915050565b600073ffffffffffffffffffffffffffffffffffffffff82169050919050565b6000610d6382610d38565b9050919050565b610d7381610d58565b82525050565b6000602082019050610d8e6000830184610d6a565b92915050565b600080fd5b610da281610d04565b8114610dad57600080fd5b50565b600081359050610dbf81610d99565b92915050565b6000819050919050565b610dd881610dc5565b8114610de357600080fd5b50565b600081359050610df581610dcf565b92915050565b60008060408385031215610e1257610e11610d94565b5b6000610e2085828601610db0565b9250506020610e3185828601610de6565b9150509250929050565b610e4481610dc5565b82525050565b6000602082019050610e5f6000830184610e3b565b92915050565b600060ff82169050919050565b610e7b81610e65565b8114610e8657600080fd5b50565b600081359050610e9881610e72565b92915050565b60008060408385031215610eb557610eb4610d94565b5b6000610ec385828601610e89565b9250506020610ed485828601610de6565b9150509250929050565b610ee781610d58565b8114610ef257600080fd5b50565b600081359050610f0481610ede565b92915050565b600060208284031215610f2057610f1f610d94565b5b6000610f2e84828501610ef5565b91505092915050565b600060208284031215610f4d57610f4c610d94565b5b6000610f5b84828501610de6565b91505092915050565b600082825260208201905092915050565b7f4f6e6c7920565246436f6f7264696e61746f722063616e2066756c66696c6c00600082015250565b6000610fab601f83610f64565b9150610fb682610f75565b602082019050919050565b60006020820190508181036000830152610fda81610f9e565b9050919050565b7f47616d6520686173206e6f74206265656e207374617274656420796574000000600082015250565b6000611017601d83610f64565b915061102282610fe1565b602082019050919050565b600060208201905081810360008301526110468161100a565b9050919050565b7f56616c75652073656e74206973206e6f7420657175616c20746f20656e74727960008201527f4665650000000000000000000000000000000000000000000000000000000000602082015250565b60006110a9602383610f64565b91506110b48261104d565b604082019050919050565b600060208201905081810360008301526110d88161109c565b9050919050565b7f47616d652069732066756c6c0000000000000000000000000000000000000000600082015250565b6000611115600c83610f64565b9150611120826110df565b602082019050919050565b6000602082019050818103600083015261114481611108565b9050919050565b60006040820190506111606000830185610e3b565b61116d6020830184610d6a565b9392505050565b7f47616d652069732063757272656e746c792072756e6e696e6700000000000000600082015250565b60006111aa601983610f64565b91506111b582611174565b602082019050919050565b600060208201905081810360008301526111d98161119d565b9050919050565b7f596f752063616e6e6f742063726561746520612067616d652077697468206d6160008201527f7820706c6179657273206c696d697420657175616c2030000000000000000000602082015250565b600061123c603783610f64565b9150611247826111e0565b604082019050919050565b6000602082019050818103600083015261126b8161122f565b9050919050565b7f4e487b7100000000000000000000000000000000000000000000000000000000600052601160045260246000fd5b60006112ac82610dc5565b91506112b783610dc5565b92508282019050808211156112cf576112ce611272565b5b92915050565b6112de81610e65565b82525050565b60006060820190506112f96000830186610e3b565b61130660208301856112d5565b6113136040830184610e3b565b949350505050565b7f4e487b7100000000000000000000000000000000000000000000000000000000600052601260045260246000fd5b600061135582610dc5565b915061136083610dc5565b9250826113705761136f61131b565b5b828206905092915050565b7f4e487b7100000000000000000000000000000000000000000000000000000000600052603260045260246000fd5b600081905092915050565b50565b60006113c56000836113aa565b91506113d0826113b5565b600082019050919050565b60006113e6826113b8565b9150819050919050565b7f4661696c656420746f2073656e64204574686572000000000000000000000000600082015250565b6000611426601483610f64565b9150611431826113f0565b602082019050919050565b6000602082019050818103600083015261145581611419565b9050919050565b60006060820190506114716000830186610e3b565b61147e6020830185610d6a565b61148b6040830184610d0e565b949350505050565b6000815190506114a281610dcf565b92915050565b6000602082840312156114be576114bd610d94565b5b60006114cc84828501611493565b91505092915050565b7f4e6f7420656e6f756768204c494e4b0000000000000000000000000000000000600082015250565b600061150b600f83610f64565b9150611516826114d5565b602082019050919050565b6000602082019050818103600083015261153a816114fe565b9050919050565b60006040820190506115566000830185610d0e565b6115636020830184610e3b565b9392505050565b600081519050919050565b600082825260208201905092915050565b60005b838110156115a4578082015181840152602081019050611589565b60008484015250505050565b6000601f19601f8301169050919050565b60006115cc8261156a565b6115d68185611575565b93506115e6818560208601611586565b6115ef816115b0565b840191505092915050565b600060608201905061160f6000830186610d6a565b61161c6020830185610e3b565b818103604083015261162e81846115c1565b9050949350505050565b61164181610cce565b811461164c57600080fd5b50565b60008151905061165e81611638565b92915050565b60006020828403121561167a57611679610d94565b5b60006116888482850161164f565b91505092915050565b60006080820190506116a66000830187610d0e565b6116b36020830186610e3b565b6116c06040830185610d6a565b6116cd6060830184610e3b565b95945050505050565b6000819050919050565b6116f16116ec82610d04565b6116d6565b82525050565b6000819050919050565b61171261170d82610dc5565b6116f7565b82525050565b600061172482856116e0565b6020820191506117348284611701565b602082019150819050939250505056fea26469706673582212206ae24fadb9fb8611c04777bf0c2e888e6bd56cb154d6abe45db9fa91a9fb4f6164736f6c63430008140033","opcodes":"PUSH1 0xC0 PUSH1 0x40 MSTORE CALLVALUE DUP1 ISZERO PUSH3 0x11 JUMPI PUSH1 0x0 DUP1 REVERT JUMPDEST POP PUSH1 0x40 MLOAD PUSH3 0x1B52 CODESIZE SUB DUP1 PUSH3 0x1B52 DUP4 CODECOPY DUP2 DUP2 ADD PUSH1 0x40 MSTORE DUP2 ADD SWAP1 PUSH3 0x37 SWAP2 SWAP1 PUSH3 0x304 JUMP JUMPDEST CALLER DUP5 DUP5 DUP2 PUSH20 0xFFFFFFFFFFFFFFFFFFFFFFFFFFFFFFFFFFFFFFFF AND PUSH1 0xA0 DUP2 PUSH20 0xFFFFFFFFFFFFFFFFFFFFFFFFFFFFFFFFFFFFFFFF AND DUP2 MSTORE POP POP DUP1 PUSH20 0xFFFFFFFFFFFFFFFFFFFFFFFFFFFFFFFFFFFFFFFF AND PUSH1 0x80 DUP2 PUSH20 0xFFFFFFFFFFFFFFFFFFFFFFFFFFFFFFFFFFFFFFFF AND DUP2 MSTORE POP POP POP POP PUSH1 0x0 PUSH20 0xFFFFFFFFFFFFFFFFFFFFFFFFFFFFFFFFFFFFFFFF AND DUP2 PUSH20 0xFFFFFFFFFFFFFFFFFFFFFFFFFFFFFFFFFFFFFFFF AND SUB PUSH3 0x119 JUMPI PUSH1 0x0 PUSH1 0x40 MLOAD PUSH32 0x1E4FBDF700000000000000000000000000000000000000000000000000000000 DUP2 MSTORE PUSH1 0x4 ADD PUSH3 0x110 SWAP2 SWAP1 PUSH3 0x387 JUMP JUMPDEST PUSH1 0x40 MLOAD DUP1 SWAP2 SUB SWAP1 REVERT JUMPDEST PUSH3 0x12A DUP2 PUSH3 0x15E PUSH1 0x20 SHL PUSH1 0x20 SHR JUMP JUMPDEST POP DUP2 PUSH1 0x3 DUP2 SWAP1 SSTORE POP DUP1 PUSH1 0x2 DUP2 SWAP1 SSTORE POP PUSH1 0x0 PUSH1 0x5 PUSH1 0x1 PUSH2 0x100 EXP DUP2 SLOAD DUP2 PUSH1 0xFF MUL NOT AND SWAP1 DUP4 ISZERO ISZERO MUL OR SWAP1 SSTORE POP POP POP POP POP PUSH3 0x3A4 JUMP JUMPDEST PUSH1 0x0 PUSH1 0x1 PUSH1 0x0 SWAP1 SLOAD SWAP1 PUSH2 0x100 EXP SWAP1 DIV PUSH20 0xFFFFFFFFFFFFFFFFFFFFFFFFFFFFFFFFFFFFFFFF AND SWAP1 POP DUP2 PUSH1 0x1 PUSH1 0x0 PUSH2 0x100 EXP DUP2 SLOAD DUP2 PUSH20 0xFFFFFFFFFFFFFFFFFFFFFFFFFFFFFFFFFFFFFFFF MUL NOT AND SWAP1 DUP4 PUSH20 0xFFFFFFFFFFFFFFFFFFFFFFFFFFFFFFFFFFFFFFFF AND MUL OR SWAP1 SSTORE POP DUP2 PUSH20 0xFFFFFFFFFFFFFFFFFFFFFFFFFFFFFFFFFFFFFFFF AND DUP2 PUSH20 0xFFFFFFFFFFFFFFFFFFFFFFFFFFFFFFFFFFFFFFFF AND PUSH32 0x8BE0079C531659141344CD1FD0A4F28419497F9722A3DAAFE3B4186F6B6457E0 PUSH1 0x40 MLOAD PUSH1 0x40 MLOAD DUP1 SWAP2 SUB SWAP1 LOG3 POP POP JUMP JUMPDEST PUSH1 0x0 DUP1 REVERT JUMPDEST PUSH1 0x0 PUSH20 0xFFFFFFFFFFFFFFFFFFFFFFFFFFFFFFFFFFFFFFFF DUP3 AND SWAP1 POP SWAP2 SWAP1 POP JUMP JUMPDEST PUSH1 0x0 PUSH3 0x256 DUP3 PUSH3 0x229 JUMP JUMPDEST SWAP1 POP SWAP2 SWAP1 POP JUMP JUMPDEST PUSH3 0x268 DUP2 PUSH3 0x249 JUMP JUMPDEST DUP2 EQ PUSH3 0x274 JUMPI PUSH1 0x0 DUP1 REVERT JUMPDEST POP JUMP JUMPDEST PUSH1 0x0 DUP2 MLOAD SWAP1 POP PUSH3 0x288 DUP2 PUSH3 0x25D JUMP JUMPDEST SWAP3 SWAP2 POP POP JUMP JUMPDEST PUSH1 0x0 DUP2 SWAP1 POP SWAP2 SWAP1 POP JUMP JUMPDEST PUSH3 0x2A3 DUP2 PUSH3 0x28E JUMP JUMPDEST DUP2 EQ PUSH3 0x2AF JUMPI PUSH1 0x0 DUP1 REVERT JUMPDEST POP JUMP JUMPDEST PUSH1 0x0 DUP2 MLOAD SWAP1 POP PUSH3 0x2C3 DUP2 PUSH3 0x298 JUMP JUMPDEST SWAP3 SWAP2 POP POP JUMP JUMPDEST PUSH1 0x0 DUP2 SWAP1 POP SWAP2 SWAP1 POP JUMP JUMPDEST PUSH3 0x2DE DUP2 PUSH3 0x2C9 JUMP JUMPDEST DUP2 EQ PUSH3 0x2EA JUMPI PUSH1 0x0 DUP1 REVERT JUMPDEST POP JUMP JUMPDEST PUSH1 0x0 DUP2 MLOAD SWAP1 POP PUSH3 0x2FE DUP2 PUSH3 0x2D3 JUMP JUMPDEST SWAP3 SWAP2 POP POP JUMP JUMPDEST PUSH1 0x0 DUP1 PUSH1 0x0 DUP1 PUSH1 0x80 DUP6 DUP8 SUB SLT ISZERO PUSH3 0x321 JUMPI PUSH3 0x320 PUSH3 0x224 JUMP JUMPDEST JUMPDEST PUSH1 0x0 PUSH3 0x331 DUP8 DUP3 DUP9 ADD PUSH3 0x277 JUMP JUMPDEST SWAP5 POP POP PUSH1 0x20 PUSH3 0x344 DUP8 DUP3 DUP9 ADD PUSH3 0x277 JUMP JUMPDEST SWAP4 POP POP PUSH1 0x40 PUSH3 0x357 DUP8 DUP3 DUP9 ADD PUSH3 0x2B2 JUMP JUMPDEST SWAP3 POP POP PUSH1 0x60 PUSH3 0x36A DUP8 DUP3 DUP9 ADD PUSH3 0x2ED JUMP JUMPDEST SWAP2 POP POP SWAP3 SWAP6 SWAP2 SWAP5 POP SWAP3 POP JUMP JUMPDEST PUSH3 0x381 DUP2 PUSH3 0x249 JUMP JUMPDEST DUP3 MSTORE POP POP JUMP JUMPDEST PUSH1 0x0 PUSH1 0x20 DUP3 ADD SWAP1 POP PUSH3 0x39E PUSH1 0x0 DUP4 ADD DUP5 PUSH3 0x376 JUMP JUMPDEST SWAP3 SWAP2 POP POP JUMP JUMPDEST PUSH1 0x80 MLOAD PUSH1 0xA0 MLOAD PUSH2 0x177A PUSH3 0x3D8 PUSH1 0x0 CODECOPY PUSH1 0x0 DUP2 DUP2 PUSH2 0x2B2 ADD MSTORE PUSH2 0xB11 ADD MSTORE PUSH1 0x0 DUP2 DUP2 PUSH2 0x9DD ADD MSTORE PUSH2 0xAD5 ADD MSTORE PUSH2 0x177A PUSH1 0x0 RETURN INVALID PUSH1 0x80 PUSH1 0x40 MSTORE PUSH1 0x4 CALLDATASIZE LT PUSH2 0xA0 JUMPI PUSH1 0x0 CALLDATALOAD PUSH1 0xE0 SHR DUP1 PUSH4 0xD4F77B1C GT PUSH2 0x64 JUMPI DUP1 PUSH4 0xD4F77B1C EQ PUSH2 0x16A JUMPI DUP1 PUSH4 0xD7C81B55 EQ PUSH2 0x174 JUMPI DUP1 PUSH4 0xDDCA3F43 EQ PUSH2 0x19F JUMPI DUP1 PUSH4 0xE849C38E EQ PUSH2 0x1CA JUMPI DUP1 PUSH4 0xF2FDE38B EQ PUSH2 0x1F3 JUMPI DUP1 PUSH4 0xF71D96CB EQ PUSH2 0x21C JUMPI PUSH2 0xA7 JUMP JUMPDEST DUP1 PUSH4 0x5E123CE4 EQ PUSH2 0xA9 JUMPI DUP1 PUSH4 0x61728F39 EQ PUSH2 0xD4 JUMPI DUP1 PUSH4 0x715018A6 EQ PUSH2 0xFF JUMPI DUP1 PUSH4 0x8DA5CB5B EQ PUSH2 0x116 JUMPI DUP1 PUSH4 0x94985DDD EQ PUSH2 0x141 JUMPI PUSH2 0xA7 JUMP JUMPDEST CALLDATASIZE PUSH2 0xA7 JUMPI STOP JUMPDEST STOP JUMPDEST CALLVALUE DUP1 ISZERO PUSH2 0xB5 JUMPI PUSH1 0x0 DUP1 REVERT JUMPDEST POP PUSH2 0xBE PUSH2 0x259 JUMP JUMPDEST PUSH1 0x40 MLOAD PUSH2 0xCB SWAP2 SWAP1 PUSH2 0xCE9 JUMP JUMPDEST PUSH1 0x40 MLOAD DUP1 SWAP2 SUB SWAP1 RETURN JUMPDEST CALLVALUE DUP1 ISZERO PUSH2 0xE0 JUMPI PUSH1 0x0 DUP1 REVERT JUMPDEST POP PUSH2 0xE9 PUSH2 0x26C JUMP JUMPDEST PUSH1 0x40 MLOAD PUSH2 0xF6 SWAP2 SWAP1 PUSH2 0xD1D JUMP JUMPDEST PUSH1 0x40 MLOAD DUP1 SWAP2 SUB SWAP1 RETURN JUMPDEST CALLVALUE DUP1 ISZERO PUSH2 0x10B JUMPI PUSH1 0x0 DUP1 REVERT JUMPDEST POP PUSH2 0x114 PUSH2 0x272 JUMP JUMPDEST STOP JUMPDEST CALLVALUE DUP1 ISZERO PUSH2 0x122 JUMPI PUSH1 0x0 DUP1 REVERT JUMPDEST POP PUSH2 0x12B PUSH2 0x286 JUMP JUMPDEST PUSH1 0x40 MLOAD PUSH2 0x138 SWAP2 SWAP1 PUSH2 0xD79 JUMP JUMPDEST PUSH1 0x40 MLOAD DUP1 SWAP2 SUB SWAP1 RETURN JUMPDEST CALLVALUE DUP1 ISZERO PUSH2 0x14D JUMPI PUSH1 0x0 DUP1 REVERT JUMPDEST POP PUSH2 0x168 PUSH1 0x4 DUP1 CALLDATASIZE SUB DUP2 ADD SWAP1 PUSH2 0x163 SWAP2 SWAP1 PUSH2 0xDFB JUMP JUMPDEST PUSH2 0x2B0 JUMP JUMPDEST STOP JUMPDEST PUSH2 0x172 PUSH2 0x34C JUMP JUMPDEST STOP JUMPDEST CALLVALUE DUP1 ISZERO PUSH2 0x180 JUMPI PUSH1 0x0 DUP1 REVERT JUMPDEST POP PUSH2 0x189 PUSH2 0x500 JUMP JUMPDEST PUSH1 0x40 MLOAD PUSH2 0x196 SWAP2 SWAP1 PUSH2 0xE4A JUMP JUMPDEST PUSH1 0x40 MLOAD DUP1 SWAP2 SUB SWAP1 RETURN JUMPDEST CALLVALUE DUP1 ISZERO PUSH2 0x1AB JUMPI PUSH1 0x0 DUP1 REVERT JUMPDEST POP PUSH2 0x1B4 PUSH2 0x506 JUMP JUMPDEST PUSH1 0x40 MLOAD PUSH2 0x1C1 SWAP2 SWAP1 PUSH2 0xE4A JUMP JUMPDEST PUSH1 0x40 MLOAD DUP1 SWAP2 SUB SWAP1 RETURN JUMPDEST CALLVALUE DUP1 ISZERO PUSH2 0x1D6 JUMPI PUSH1 0x0 DUP1 REVERT JUMPDEST POP PUSH2 0x1F1 PUSH1 0x4 DUP1 CALLDATASIZE SUB DUP2 ADD SWAP1 PUSH2 0x1EC SWAP2 SWAP1 PUSH2 0xE9E JUMP JUMPDEST PUSH2 0x50C JUMP JUMPDEST STOP JUMPDEST CALLVALUE DUP1 ISZERO PUSH2 0x1FF JUMPI PUSH1 0x0 DUP1 REVERT JUMPDEST POP PUSH2 0x21A PUSH1 0x4 DUP1 CALLDATASIZE SUB DUP2 ADD SWAP1 PUSH2 0x215 SWAP2 SWAP1 PUSH2 0xF0A JUMP JUMPDEST PUSH2 0x661 JUMP JUMPDEST STOP JUMPDEST CALLVALUE DUP1 ISZERO PUSH2 0x228 JUMPI PUSH1 0x0 DUP1 REVERT JUMPDEST POP PUSH2 0x243 PUSH1 0x4 DUP1 CALLDATASIZE SUB DUP2 ADD SWAP1 PUSH2 0x23E SWAP2 SWAP1 PUSH2 0xF37 JUMP JUMPDEST PUSH2 0x6E7 JUMP JUMPDEST PUSH1 0x40 MLOAD PUSH2 0x250 SWAP2 SWAP1 PUSH2 0xD79 JUMP JUMPDEST PUSH1 0x40 MLOAD DUP1 SWAP2 SUB SWAP1 RETURN JUMPDEST PUSH1 0x5 PUSH1 0x1 SWAP1 SLOAD SWAP1 PUSH2 0x100 EXP SWAP1 DIV PUSH1 0xFF AND DUP2 JUMP JUMPDEST PUSH1 0x3 SLOAD DUP2 JUMP JUMPDEST PUSH2 0x27A PUSH2 0x726 JUMP JUMPDEST PUSH2 0x284 PUSH1 0x0 PUSH2 0x7AD JUMP JUMPDEST JUMP JUMPDEST PUSH1 0x0 PUSH1 0x1 PUSH1 0x0 SWAP1 SLOAD SWAP1 PUSH2 0x100 EXP SWAP1 DIV PUSH20 0xFFFFFFFFFFFFFFFFFFFFFFFFFFFFFFFFFFFFFFFF AND SWAP1 POP SWAP1 JUMP JUMPDEST PUSH32 0x0 PUSH20 0xFFFFFFFFFFFFFFFFFFFFFFFFFFFFFFFFFFFFFFFF AND CALLER PUSH20 0xFFFFFFFFFFFFFFFFFFFFFFFFFFFFFFFFFFFFFFFF AND EQ PUSH2 0x33E JUMPI PUSH1 0x40 MLOAD PUSH32 0x8C379A000000000000000000000000000000000000000000000000000000000 DUP2 MSTORE PUSH1 0x4 ADD PUSH2 0x335 SWAP1 PUSH2 0xFC1 JUMP JUMPDEST PUSH1 0x40 MLOAD DUP1 SWAP2 SUB SWAP1 REVERT JUMPDEST PUSH2 0x348 DUP3 DUP3 PUSH2 0x873 JUMP JUMPDEST POP POP JUMP JUMPDEST PUSH1 0x5 PUSH1 0x1 SWAP1 SLOAD SWAP1 PUSH2 0x100 EXP SWAP1 DIV PUSH1 0xFF AND PUSH2 0x39B JUMPI PUSH1 0x40 MLOAD PUSH32 0x8C379A000000000000000000000000000000000000000000000000000000000 DUP2 MSTORE PUSH1 0x4 ADD PUSH2 0x392 SWAP1 PUSH2 0x102D JUMP JUMPDEST PUSH1 0x40 MLOAD DUP1 SWAP2 SUB SWAP1 REVERT JUMPDEST PUSH1 0x6 SLOAD CALLVALUE EQ PUSH2 0x3DF JUMPI PUSH1 0x40 MLOAD PUSH32 0x8C379A000000000000000000000000000000000000000000000000000000000 DUP2 MSTORE PUSH1 0x4 ADD PUSH2 0x3D6 SWAP1 PUSH2 0x10BF JUMP JUMPDEST PUSH1 0x40 MLOAD DUP1 SWAP2 SUB SWAP1 REVERT JUMPDEST PUSH1 0x5 PUSH1 0x0 SWAP1 SLOAD SWAP1 PUSH2 0x100 EXP SWAP1 DIV PUSH1 0xFF AND PUSH1 0xFF AND PUSH1 0x4 DUP1 SLOAD SWAP1 POP LT PUSH2 0x438 JUMPI PUSH1 0x40 MLOAD PUSH32 0x8C379A000000000000000000000000000000000000000000000000000000000 DUP2 MSTORE PUSH1 0x4 ADD PUSH2 0x42F SWAP1 PUSH2 0x112B JUMP JUMPDEST PUSH1 0x40 MLOAD DUP1 SWAP2 SUB SWAP1 REVERT JUMPDEST PUSH1 0x4 CALLER SWAP1 DUP1 PUSH1 0x1 DUP2 SLOAD ADD DUP1 DUP3 SSTORE DUP1 SWAP2 POP POP PUSH1 0x1 SWAP1 SUB SWAP1 PUSH1 0x0 MSTORE PUSH1 0x20 PUSH1 0x0 KECCAK256 ADD PUSH1 0x0 SWAP1 SWAP2 SWAP1 SWAP2 SWAP1 SWAP2 PUSH2 0x100 EXP DUP2 SLOAD DUP2 PUSH20 0xFFFFFFFFFFFFFFFFFFFFFFFFFFFFFFFFFFFFFFFF MUL NOT AND SWAP1 DUP4 PUSH20 0xFFFFFFFFFFFFFFFFFFFFFFFFFFFFFFFFFFFFFFFF AND MUL OR SWAP1 SSTORE POP PUSH32 0x87969BC7FAF902221A147B95CEBA76E011C5EFB0339A0A8EE7A2BB82D9CFBBD6 PUSH1 0x7 SLOAD CALLER PUSH1 0x40 MLOAD PUSH2 0x4CE SWAP3 SWAP2 SWAP1 PUSH2 0x114B JUMP JUMPDEST PUSH1 0x40 MLOAD DUP1 SWAP2 SUB SWAP1 LOG1 PUSH1 0x5 PUSH1 0x0 SWAP1 SLOAD SWAP1 PUSH2 0x100 EXP SWAP1 DIV PUSH1 0xFF AND PUSH1 0xFF AND PUSH1 0x4 DUP1 SLOAD SWAP1 POP SUB PUSH2 0x4FE JUMPI PUSH2 0x4FC PUSH2 0x9D6 JUMP JUMPDEST POP JUMPDEST JUMP JUMPDEST PUSH1 0x7 SLOAD DUP2 JUMP JUMPDEST PUSH1 0x2 SLOAD DUP2 JUMP JUMPDEST PUSH2 0x514 PUSH2 0x726 JUMP JUMPDEST PUSH1 0x5 PUSH1 0x1 SWAP1 SLOAD SWAP1 PUSH2 0x100 EXP SWAP1 DIV PUSH1 0xFF AND ISZERO PUSH2 0x564 JUMPI PUSH1 0x40 MLOAD PUSH32 0x8C379A000000000000000000000000000000000000000000000000000000000 DUP2 MSTORE PUSH1 0x4 ADD PUSH2 0x55B SWAP1 PUSH2 0x11C0 JUMP JUMPDEST PUSH1 0x40 MLOAD DUP1 SWAP2 SUB SWAP1 REVERT JUMPDEST PUSH1 0x0 DUP3 PUSH1 0xFF AND GT PUSH2 0x5AA JUMPI PUSH1 0x40 MLOAD PUSH32 0x8C379A000000000000000000000000000000000000000000000000000000000 DUP2 MSTORE PUSH1 0x4 ADD PUSH2 0x5A1 SWAP1 PUSH2 0x1252 JUMP JUMPDEST PUSH1 0x40 MLOAD DUP1 SWAP2 SUB SWAP1 REVERT JUMPDEST PUSH1 0x4 PUSH1 0x0 PUSH2 0x5B8 SWAP2 SWAP1 PUSH2 0xC90 JUMP JUMPDEST DUP2 PUSH1 0x5 PUSH1 0x0 PUSH2 0x100 EXP DUP2 SLOAD DUP2 PUSH1 0xFF MUL NOT AND SWAP1 DUP4 PUSH1 0xFF AND MUL OR SWAP1 SSTORE POP PUSH1 0x1 PUSH1 0x5 PUSH1 0x1 PUSH2 0x100 EXP DUP2 SLOAD DUP2 PUSH1 0xFF MUL NOT AND SWAP1 DUP4 ISZERO ISZERO MUL OR SWAP1 SSTORE POP DUP1 PUSH1 0x6 DUP2 SWAP1 SSTORE POP PUSH1 0x1 PUSH1 0x7 PUSH1 0x0 DUP3 DUP3 SLOAD PUSH2 0x608 SWAP2 SWAP1 PUSH2 0x12A1 JUMP JUMPDEST SWAP3 POP POP DUP2 SWAP1 SSTORE POP PUSH32 0x10A7675BF1B19B67834CA5A59866847FD31C62CDFC8E9466039E6B8E088E15AE PUSH1 0x7 SLOAD PUSH1 0x5 PUSH1 0x0 SWAP1 SLOAD SWAP1 PUSH2 0x100 EXP SWAP1 DIV PUSH1 0xFF AND PUSH1 0x6 SLOAD PUSH1 0x40 MLOAD PUSH2 0x655 SWAP4 SWAP3 SWAP2 SWAP1 PUSH2 0x12E4 JUMP JUMPDEST PUSH1 0x40 MLOAD DUP1 SWAP2 SUB SWAP1 LOG1 POP POP JUMP JUMPDEST PUSH2 0x669 PUSH2 0x726 JUMP JUMPDEST PUSH1 0x0 PUSH20 0xFFFFFFFFFFFFFFFFFFFFFFFFFFFFFFFFFFFFFFFF AND DUP2 PUSH20 0xFFFFFFFFFFFFFFFFFFFFFFFFFFFFFFFFFFFFFFFF AND SUB PUSH2 0x6DB JUMPI PUSH1 0x0 PUSH1 0x40 MLOAD PUSH32 0x1E4FBDF700000000000000000000000000000000000000000000000000000000 DUP2 MSTORE PUSH1 0x4 ADD PUSH2 0x6D2 SWAP2 SWAP1 PUSH2 0xD79 JUMP JUMPDEST PUSH1 0x40 MLOAD DUP1 SWAP2 SUB SWAP1 REVERT JUMPDEST PUSH2 0x6E4 DUP2 PUSH2 0x7AD JUMP JUMPDEST POP JUMP JUMPDEST PUSH1 0x4 DUP2 DUP2 SLOAD DUP2 LT PUSH2 0x6F7 JUMPI PUSH1 0x0 DUP1 REVERT JUMPDEST SWAP1 PUSH1 0x0 MSTORE PUSH1 0x20 PUSH1 0x0 KECCAK256 ADD PUSH1 0x0 SWAP2 POP SLOAD SWAP1 PUSH2 0x100 EXP SWAP1 DIV PUSH20 0xFFFFFFFFFFFFFFFFFFFFFFFFFFFFFFFFFFFFFFFF AND DUP2 JUMP JUMPDEST PUSH2 0x72E PUSH2 0xAC9 JUMP JUMPDEST PUSH20 0xFFFFFFFFFFFFFFFFFFFFFFFFFFFFFFFFFFFFFFFF AND PUSH2 0x74C PUSH2 0x286 JUMP JUMPDEST PUSH20 0xFFFFFFFFFFFFFFFFFFFFFFFFFFFFFFFFFFFFFFFF AND EQ PUSH2 0x7AB JUMPI PUSH2 0x76F PUSH2 0xAC9 JUMP JUMPDEST PUSH1 0x40 MLOAD PUSH32 0x118CDAA700000000000000000000000000000000000000000000000000000000 DUP2 MSTORE PUSH1 0x4 ADD PUSH2 0x7A2 SWAP2 SWAP1 PUSH2 0xD79 JUMP JUMPDEST PUSH1 0x40 MLOAD DUP1 SWAP2 SUB SWAP1 REVERT JUMPDEST JUMP JUMPDEST PUSH1 0x0 PUSH1 0x1 PUSH1 0x0 SWAP1 SLOAD SWAP1 PUSH2 0x100 EXP SWAP1 DIV PUSH20 0xFFFFFFFFFFFFFFFFFFFFFFFFFFFFFFFFFFFFFFFF AND SWAP1 POP DUP2 PUSH1 0x1 PUSH1 0x0 PUSH2 0x100 EXP DUP2 SLOAD DUP2 PUSH20 0xFFFFFFFFFFFFFFFFFFFFFFFFFFFFFFFFFFFFFFFF MUL NOT AND SWAP1 DUP4 PUSH20 0xFFFFFFFFFFFFFFFFFFFFFFFFFFFFFFFFFFFFFFFF AND MUL OR SWAP1 SSTORE POP DUP2 PUSH20 0xFFFFFFFFFFFFFFFFFFFFFFFFFFFFFFFFFFFFFFFF AND DUP2 PUSH20 0xFFFFFFFFFFFFFFFFFFFFFFFFFFFFFFFFFFFFFFFF AND PUSH32 0x8BE0079C531659141344CD1FD0A4F28419497F9722A3DAAFE3B4186F6B6457E0 PUSH1 0x40 MLOAD PUSH1 0x40 MLOAD DUP1 SWAP2 SUB SWAP1 LOG3 POP POP JUMP JUMPDEST PUSH1 0x0 PUSH1 0x4 DUP1 SLOAD SWAP1 POP DUP3 PUSH2 0x886 SWAP2 SWAP1 PUSH2 0x134A JUMP JUMPDEST SWAP1 POP PUSH1 0x0 PUSH1 0x4 DUP3 DUP2 SLOAD DUP2 LT PUSH2 0x89E JUMPI PUSH2 0x89D PUSH2 0x137B JUMP JUMPDEST JUMPDEST SWAP1 PUSH1 0x0 MSTORE PUSH1 0x20 PUSH1 0x0 KECCAK256 ADD PUSH1 0x0 SWAP1 SLOAD SWAP1 PUSH2 0x100 EXP SWAP1 DIV PUSH20 0xFFFFFFFFFFFFFFFFFFFFFFFFFFFFFFFFFFFFFFFF AND SWAP1 POP PUSH1 0x0 DUP2 PUSH20 0xFFFFFFFFFFFFFFFFFFFFFFFFFFFFFFFFFFFFFFFF AND SELFBALANCE PUSH1 0x40 MLOAD PUSH2 0x8F1 SWAP1 PUSH2 0x13DB JUMP JUMPDEST PUSH1 0x0 PUSH1 0x40 MLOAD DUP1 DUP4 SUB DUP2 DUP6 DUP8 GAS CALL SWAP3 POP POP POP RETURNDATASIZE DUP1 PUSH1 0x0 DUP2 EQ PUSH2 0x92E JUMPI PUSH1 0x40 MLOAD SWAP2 POP PUSH1 0x1F NOT PUSH1 0x3F RETURNDATASIZE ADD AND DUP3 ADD PUSH1 0x40 MSTORE RETURNDATASIZE DUP3 MSTORE RETURNDATASIZE PUSH1 0x0 PUSH1 0x20 DUP5 ADD RETURNDATACOPY PUSH2 0x933 JUMP JUMPDEST PUSH1 0x60 SWAP2 POP JUMPDEST POP POP SWAP1 POP DUP1 PUSH2 0x977 JUMPI PUSH1 0x40 MLOAD PUSH32 0x8C379A000000000000000000000000000000000000000000000000000000000 DUP2 MSTORE PUSH1 0x4 ADD PUSH2 0x96E SWAP1 PUSH2 0x143C JUMP JUMPDEST PUSH1 0x40 MLOAD DUP1 SWAP2 SUB SWAP1 REVERT JUMPDEST PUSH32 0xD2DA138EC4B828F6F1DD931EEA0488E41E941F7CDA657AD8F524EDE8CB2C7CE0 PUSH1 0x7 SLOAD DUP4 DUP8 PUSH1 0x40 MLOAD PUSH2 0x9AC SWAP4 SWAP3 SWAP2 SWAP1 PUSH2 0x145C JUMP JUMPDEST PUSH1 0x40 MLOAD DUP1 SWAP2 SUB SWAP1 LOG1 PUSH1 0x0 PUSH1 0x5 PUSH1 0x1 PUSH2 0x100 EXP DUP2 SLOAD DUP2 PUSH1 0xFF MUL NOT AND SWAP1 DUP4 ISZERO ISZERO MUL OR SWAP1 SSTORE POP POP POP POP POP POP JUMP JUMPDEST PUSH1 0x0 PUSH1 0x2 SLOAD PUSH32 0x0 PUSH20 0xFFFFFFFFFFFFFFFFFFFFFFFFFFFFFFFFFFFFFFFF AND PUSH4 0x70A08231 ADDRESS PUSH1 0x40 MLOAD DUP3 PUSH4 0xFFFFFFFF AND PUSH1 0xE0 SHL DUP2 MSTORE PUSH1 0x4 ADD PUSH2 0xA34 SWAP2 SWAP1 PUSH2 0xD79 JUMP JUMPDEST PUSH1 0x20 PUSH1 0x40 MLOAD DUP1 DUP4 SUB DUP2 DUP7 GAS STATICCALL ISZERO DUP1 ISZERO PUSH2 0xA51 JUMPI RETURNDATASIZE PUSH1 0x0 DUP1 RETURNDATACOPY RETURNDATASIZE PUSH1 0x0 REVERT JUMPDEST POP POP POP POP PUSH1 0x40 MLOAD RETURNDATASIZE PUSH1 0x1F NOT PUSH1 0x1F DUP3 ADD AND DUP3 ADD DUP1 PUSH1 0x40 MSTORE POP DUP2 ADD SWAP1 PUSH2 0xA75 SWAP2 SWAP1 PUSH2 0x14A8 JUMP JUMPDEST LT ISZERO PUSH2 0xAB6 JUMPI PUSH1 0x40 MLOAD PUSH32 0x8C379A000000000000000000000000000000000000000000000000000000000 DUP2 MSTORE PUSH1 0x4 ADD PUSH2 0xAAD SWAP1 PUSH2 0x1521 JUMP JUMPDEST PUSH1 0x40 MLOAD DUP1 SWAP2 SUB SWAP1 REVERT JUMPDEST PUSH2 0xAC4 PUSH1 0x3 SLOAD PUSH1 0x2 SLOAD PUSH2 0xAD1 JUMP JUMPDEST SWAP1 POP SWAP1 JUMP JUMPDEST PUSH1 0x0 CALLER SWAP1 POP SWAP1 JUMP JUMPDEST PUSH1 0x0 PUSH32 0x0 PUSH20 0xFFFFFFFFFFFFFFFFFFFFFFFFFFFFFFFFFFFFFFFF AND PUSH4 0x4000AEA0 PUSH32 0x0 DUP5 DUP7 PUSH1 0x0 PUSH1 0x40 MLOAD PUSH1 0x20 ADD PUSH2 0xB45 SWAP3 SWAP2 SWAP1 PUSH2 0x1541 JUMP JUMPDEST PUSH1 0x40 MLOAD PUSH1 0x20 DUP2 DUP4 SUB SUB DUP2 MSTORE SWAP1 PUSH1 0x40 MSTORE PUSH1 0x40 MLOAD DUP5 PUSH4 0xFFFFFFFF AND PUSH1 0xE0 SHL DUP2 MSTORE PUSH1 0x4 ADD PUSH2 0xB72 SWAP4 SWAP3 SWAP2 SWAP1 PUSH2 0x15FA JUMP JUMPDEST PUSH1 0x20 PUSH1 0x40 MLOAD DUP1 DUP4 SUB DUP2 PUSH1 0x0 DUP8 GAS CALL ISZERO DUP1 ISZERO PUSH2 0xB91 JUMPI RETURNDATASIZE PUSH1 0x0 DUP1 RETURNDATACOPY RETURNDATASIZE PUSH1 0x0 REVERT JUMPDEST POP POP POP POP PUSH1 0x40 MLOAD RETURNDATASIZE PUSH1 0x1F NOT PUSH1 0x1F DUP3 ADD AND DUP3 ADD DUP1 PUSH1 0x40 MSTORE POP DUP2 ADD SWAP1 PUSH2 0xBB5 SWAP2 SWAP1 PUSH2 0x1664 JUMP JUMPDEST POP PUSH1 0x0 PUSH2 0xBD7 DUP5 PUSH1 0x0 ADDRESS PUSH1 0x0 DUP1 DUP10 DUP2 MSTORE PUSH1 0x20 ADD SWAP1 DUP2 MSTORE PUSH1 0x20 ADD PUSH1 0x0 KECCAK256 SLOAD PUSH2 0xC21 JUMP JUMPDEST SWAP1 POP PUSH1 0x1 PUSH1 0x0 DUP1 DUP7 DUP2 MSTORE PUSH1 0x20 ADD SWAP1 DUP2 MSTORE PUSH1 0x20 ADD PUSH1 0x0 KECCAK256 SLOAD PUSH2 0xBF8 SWAP2 SWAP1 PUSH2 0x12A1 JUMP JUMPDEST PUSH1 0x0 DUP1 DUP7 DUP2 MSTORE PUSH1 0x20 ADD SWAP1 DUP2 MSTORE PUSH1 0x20 ADD PUSH1 0x0 KECCAK256 DUP2 SWAP1 SSTORE POP PUSH2 0xC18 DUP5 DUP3 PUSH2 0xC5D JUMP JUMPDEST SWAP2 POP POP SWAP3 SWAP2 POP POP JUMP JUMPDEST PUSH1 0x0 DUP5 DUP5 DUP5 DUP5 PUSH1 0x40 MLOAD PUSH1 0x20 ADD PUSH2 0xC3A SWAP5 SWAP4 SWAP3 SWAP2 SWAP1 PUSH2 0x1691 JUMP JUMPDEST PUSH1 0x40 MLOAD PUSH1 0x20 DUP2 DUP4 SUB SUB DUP2 MSTORE SWAP1 PUSH1 0x40 MSTORE DUP1 MLOAD SWAP1 PUSH1 0x20 ADD KECCAK256 PUSH1 0x0 SHR SWAP1 POP SWAP5 SWAP4 POP POP POP POP JUMP JUMPDEST PUSH1 0x0 DUP3 DUP3 PUSH1 0x40 MLOAD PUSH1 0x20 ADD PUSH2 0xC72 SWAP3 SWAP2 SWAP1 PUSH2 0x1718 JUMP JUMPDEST PUSH1 0x40 MLOAD PUSH1 0x20 DUP2 DUP4 SUB SUB DUP2 MSTORE SWAP1 PUSH1 0x40 MSTORE DUP1 MLOAD SWAP1 PUSH1 0x20 ADD KECCAK256 SWAP1 POP SWAP3 SWAP2 POP POP JUMP JUMPDEST POP DUP1 SLOAD PUSH1 0x0 DUP3 SSTORE SWAP1 PUSH1 0x0 MSTORE PUSH1 0x20 PUSH1 0x0 KECCAK256 SWAP1 DUP2 ADD SWAP1 PUSH2 0xCAE SWAP2 SWAP1 PUSH2 0xCB1 JUMP JUMPDEST POP JUMP JUMPDEST JUMPDEST DUP1 DUP3 GT ISZERO PUSH2 0xCCA JUMPI PUSH1 0x0 DUP2 PUSH1 0x0 SWAP1 SSTORE POP PUSH1 0x1 ADD PUSH2 0xCB2 JUMP JUMPDEST POP SWAP1 JUMP JUMPDEST PUSH1 0x0 DUP2 ISZERO ISZERO SWAP1 POP SWAP2 SWAP1 POP JUMP JUMPDEST PUSH2 0xCE3 DUP2 PUSH2 0xCCE JUMP JUMPDEST DUP3 MSTORE POP POP JUMP JUMPDEST PUSH1 0x0 PUSH1 0x20 DUP3 ADD SWAP1 POP PUSH2 0xCFE PUSH1 0x0 DUP4 ADD DUP5 PUSH2 0xCDA JUMP JUMPDEST SWAP3 SWAP2 POP POP JUMP JUMPDEST PUSH1 0x0 DUP2 SWAP1 POP SWAP2 SWAP1 POP JUMP JUMPDEST PUSH2 0xD17 DUP2 PUSH2 0xD04 JUMP JUMPDEST DUP3 MSTORE POP POP JUMP JUMPDEST PUSH1 0x0 PUSH1 0x20 DUP3 ADD SWAP1 POP PUSH2 0xD32 PUSH1 0x0 DUP4 ADD DUP5 PUSH2 0xD0E JUMP JUMPDEST SWAP3 SWAP2 POP POP JUMP JUMPDEST PUSH1 0x0 PUSH20 0xFFFFFFFFFFFFFFFFFFFFFFFFFFFFFFFFFFFFFFFF DUP3 AND SWAP1 POP SWAP2 SWAP1 POP JUMP JUMPDEST PUSH1 0x0 PUSH2 0xD63 DUP3 PUSH2 0xD38 JUMP JUMPDEST SWAP1 POP SWAP2 SWAP1 POP JUMP JUMPDEST PUSH2 0xD73 DUP2 PUSH2 0xD58 JUMP JUMPDEST DUP3 MSTORE POP POP JUMP JUMPDEST PUSH1 0x0 PUSH1 0x20 DUP3 ADD SWAP1 POP PUSH2 0xD8E PUSH1 0x0 DUP4 ADD DUP5 PUSH2 0xD6A JUMP JUMPDEST SWAP3 SWAP2 POP POP JUMP JUMPDEST PUSH1 0x0 DUP1 REVERT JUMPDEST PUSH2 0xDA2 DUP2 PUSH2 0xD04 JUMP JUMPDEST DUP2 EQ PUSH2 0xDAD JUMPI PUSH1 0x0 DUP1 REVERT JUMPDEST POP JUMP JUMPDEST PUSH1 0x0 DUP2 CALLDATALOAD SWAP1 POP PUSH2 0xDBF DUP2 PUSH2 0xD99 JUMP JUMPDEST SWAP3 SWAP2 POP POP JUMP JUMPDEST PUSH1 0x0 DUP2 SWAP1 POP SWAP2 SWAP1 POP JUMP JUMPDEST PUSH2 0xDD8 DUP2 PUSH2 0xDC5 JUMP JUMPDEST DUP2 EQ PUSH2 0xDE3 JUMPI PUSH1 0x0 DUP1 REVERT JUMPDEST POP JUMP JUMPDEST PUSH1 0x0 DUP2 CALLDATALOAD SWAP1 POP PUSH2 0xDF5 DUP2 PUSH2 0xDCF JUMP JUMPDEST SWAP3 SWAP2 POP POP JUMP JUMPDEST PUSH1 0x0 DUP1 PUSH1 0x40 DUP4 DUP6 SUB SLT ISZERO PUSH2 0xE12 JUMPI PUSH2 0xE11 PUSH2 0xD94 JUMP JUMPDEST JUMPDEST PUSH1 0x0 PUSH2 0xE20 DUP6 DUP3 DUP7 ADD PUSH2 0xDB0 JUMP JUMPDEST SWAP3 POP POP PUSH1 0x20 PUSH2 0xE31 DUP6 DUP3 DUP7 ADD PUSH2 0xDE6 JUMP JUMPDEST SWAP2 POP POP SWAP3 POP SWAP3 SWAP1 POP JUMP JUMPDEST PUSH2 0xE44 DUP2 PUSH2 0xDC5 JUMP JUMPDEST DUP3 MSTORE POP POP JUMP JUMPDEST PUSH1 0x0 PUSH1 0x20 DUP3 ADD SWAP1 POP PUSH2 0xE5F PUSH1 0x0 DUP4 ADD DUP5 PUSH2 0xE3B JUMP JUMPDEST SWAP3 SWAP2 POP POP JUMP JUMPDEST PUSH1 0x0 PUSH1 0xFF DUP3 AND SWAP1 POP SWAP2 SWAP1 POP JUMP JUMPDEST PUSH2 0xE7B DUP2 PUSH2 0xE65 JUMP JUMPDEST DUP2 EQ PUSH2 0xE86 JUMPI PUSH1 0x0 DUP1 REVERT JUMPDEST POP JUMP JUMPDEST PUSH1 0x0 DUP2 CALLDATALOAD SWAP1 POP PUSH2 0xE98 DUP2 PUSH2 0xE72 JUMP JUMPDEST SWAP3 SWAP2 POP POP JUMP JUMPDEST PUSH1 0x0 DUP1 PUSH1 0x40 DUP4 DUP6 SUB SLT ISZERO PUSH2 0xEB5 JUMPI PUSH2 0xEB4 PUSH2 0xD94 JUMP JUMPDEST JUMPDEST PUSH1 0x0 PUSH2 0xEC3 DUP6 DUP3 DUP7 ADD PUSH2 0xE89 JUMP JUMPDEST SWAP3 POP POP PUSH1 0x20 PUSH2 0xED4 DUP6 DUP3 DUP7 ADD PUSH2 0xDE6 JUMP JUMPDEST SWAP2 POP POP SWAP3 POP SWAP3 SWAP1 POP JUMP JUMPDEST PUSH2 0xEE7 DUP2 PUSH2 0xD58 JUMP JUMPDEST DUP2 EQ PUSH2 0xEF2 JUMPI PUSH1 0x0 DUP1 REVERT JUMPDEST POP JUMP JUMPDEST PUSH1 0x0 DUP2 CALLDATALOAD SWAP1 POP PUSH2 0xF04 DUP2 PUSH2 0xEDE JUMP JUMPDEST SWAP3 SWAP2 POP POP JUMP JUMPDEST PUSH1 0x0 PUSH1 0x20 DUP3 DUP5 SUB SLT ISZERO PUSH2 0xF20 JUMPI PUSH2 0xF1F PUSH2 0xD94 JUMP JUMPDEST JUMPDEST PUSH1 0x0 PUSH2 0xF2E DUP5 DUP3 DUP6 ADD PUSH2 0xEF5 JUMP JUMPDEST SWAP2 POP POP SWAP3 SWAP2 POP POP JUMP JUMPDEST PUSH1 0x0 PUSH1 0x20 DUP3 DUP5 SUB SLT ISZERO PUSH2 0xF4D JUMPI PUSH2 0xF4C PUSH2 0xD94 JUMP JUMPDEST JUMPDEST PUSH1 0x0 PUSH2 0xF5B DUP5 DUP3 DUP6 ADD PUSH2 0xDE6 JUMP JUMPDEST SWAP2 POP POP SWAP3 SWAP2 POP POP JUMP JUMPDEST PUSH1 0x0 DUP3 DUP3 MSTORE PUSH1 0x20 DUP3 ADD SWAP1 POP SWAP3 SWAP2 POP POP JUMP JUMPDEST PUSH32 0x4F6E6C7920565246436F6F7264696E61746F722063616E2066756C66696C6C00 PUSH1 0x0 DUP3 ADD MSTORE POP JUMP JUMPDEST PUSH1 0x0 PUSH2 0xFAB PUSH1 0x1F DUP4 PUSH2 0xF64 JUMP JUMPDEST SWAP2 POP PUSH2 0xFB6 DUP3 PUSH2 0xF75 JUMP JUMPDEST PUSH1 0x20 DUP3 ADD SWAP1 POP SWAP2 SWAP1 POP JUMP JUMPDEST PUSH1 0x0 PUSH1 0x20 DUP3 ADD SWAP1 POP DUP2 DUP2 SUB PUSH1 0x0 DUP4 ADD MSTORE PUSH2 0xFDA DUP2 PUSH2 0xF9E JUMP JUMPDEST SWAP1 POP SWAP2 SWAP1 POP JUMP JUMPDEST PUSH32 0x47616D6520686173206E6F74206265656E207374617274656420796574000000 PUSH1 0x0 DUP3 ADD MSTORE POP JUMP JUMPDEST PUSH1 0x0 PUSH2 0x1017 PUSH1 0x1D DUP4 PUSH2 0xF64 JUMP JUMPDEST SWAP2 POP PUSH2 0x1022 DUP3 PUSH2 0xFE1 JUMP JUMPDEST PUSH1 0x20 DUP3 ADD SWAP1 POP SWAP2 SWAP1 POP JUMP JUMPDEST PUSH1 0x0 PUSH1 0x20 DUP3 ADD SWAP1 POP DUP2 DUP2 SUB PUSH1 0x0 DUP4 ADD MSTORE PUSH2 0x1046 DUP2 PUSH2 0x100A JUMP JUMPDEST SWAP1 POP SWAP2 SWAP1 POP JUMP JUMPDEST PUSH32 0x56616C75652073656E74206973206E6F7420657175616C20746F20656E747279 PUSH1 0x0 DUP3 ADD MSTORE PUSH32 0x4665650000000000000000000000000000000000000000000000000000000000 PUSH1 0x20 DUP3 ADD MSTORE POP JUMP JUMPDEST PUSH1 0x0 PUSH2 0x10A9 PUSH1 0x23 DUP4 PUSH2 0xF64 JUMP JUMPDEST SWAP2 POP PUSH2 0x10B4 DUP3 PUSH2 0x104D JUMP JUMPDEST PUSH1 0x40 DUP3 ADD SWAP1 POP SWAP2 SWAP1 POP JUMP JUMPDEST PUSH1 0x0 PUSH1 0x20 DUP3 ADD SWAP1 POP DUP2 DUP2 SUB PUSH1 0x0 DUP4 ADD MSTORE PUSH2 0x10D8 DUP2 PUSH2 0x109C JUMP JUMPDEST SWAP1 POP SWAP2 SWAP1 POP JUMP JUMPDEST PUSH32 0x47616D652069732066756C6C0000000000000000000000000000000000000000 PUSH1 0x0 DUP3 ADD MSTORE POP JUMP JUMPDEST PUSH1 0x0 PUSH2 0x1115 PUSH1 0xC DUP4 PUSH2 0xF64 JUMP JUMPDEST SWAP2 POP PUSH2 0x1120 DUP3 PUSH2 0x10DF JUMP JUMPDEST PUSH1 0x20 DUP3 ADD SWAP1 POP SWAP2 SWAP1 POP JUMP JUMPDEST PUSH1 0x0 PUSH1 0x20 DUP3 ADD SWAP1 POP DUP2 DUP2 SUB PUSH1 0x0 DUP4 ADD MSTORE PUSH2 0x1144 DUP2 PUSH2 0x1108 JUMP JUMPDEST SWAP1 POP SWAP2 SWAP1 POP JUMP JUMPDEST PUSH1 0x0 PUSH1 0x40 DUP3 ADD SWAP1 POP PUSH2 0x1160 PUSH1 0x0 DUP4 ADD DUP6 PUSH2 0xE3B JUMP JUMPDEST PUSH2 0x116D PUSH1 0x20 DUP4 ADD DUP5 PUSH2 0xD6A JUMP JUMPDEST SWAP4 SWAP3 POP POP POP JUMP JUMPDEST PUSH32 0x47616D652069732063757272656E746C792072756E6E696E6700000000000000 PUSH1 0x0 DUP3 ADD MSTORE POP JUMP JUMPDEST PUSH1 0x0 PUSH2 0x11AA PUSH1 0x19 DUP4 PUSH2 0xF64 JUMP JUMPDEST SWAP2 POP PUSH2 0x11B5 DUP3 PUSH2 0x1174 JUMP JUMPDEST PUSH1 0x20 DUP3 ADD SWAP1 POP SWAP2 SWAP1 POP JUMP JUMPDEST PUSH1 0x0 PUSH1 0x20 DUP3 ADD SWAP1 POP DUP2 DUP2 SUB PUSH1 0x0 DUP4 ADD MSTORE PUSH2 0x11D9 DUP2 PUSH2 0x119D JUMP JUMPDEST SWAP1 POP SWAP2 SWAP1 POP JUMP JUMPDEST PUSH32 0x596F752063616E6E6F742063726561746520612067616D652077697468206D61 PUSH1 0x0 DUP3 ADD MSTORE PUSH32 0x7820706C6179657273206C696D697420657175616C2030000000000000000000 PUSH1 0x20 DUP3 ADD MSTORE POP JUMP JUMPDEST PUSH1 0x0 PUSH2 0x123C PUSH1 0x37 DUP4 PUSH2 0xF64 JUMP JUMPDEST SWAP2 POP PUSH2 0x1247 DUP3 PUSH2 0x11E0 JUMP JUMPDEST PUSH1 0x40 DUP3 ADD SWAP1 POP SWAP2 SWAP1 POP JUMP JUMPDEST PUSH1 0x0 PUSH1 0x20 DUP3 ADD SWAP1 POP DUP2 DUP2 SUB PUSH1 0x0 DUP4 ADD MSTORE PUSH2 0x126B DUP2 PUSH2 0x122F JUMP JUMPDEST SWAP1 POP SWAP2 SWAP1 POP JUMP JUMPDEST PUSH32 0x4E487B7100000000000000000000000000000000000000000000000000000000 PUSH1 0x0 MSTORE PUSH1 0x11 PUSH1 0x4 MSTORE PUSH1 0x24 PUSH1 0x0 REVERT JUMPDEST PUSH1 0x0 PUSH2 0x12AC DUP3 PUSH2 0xDC5 JUMP JUMPDEST SWAP2 POP PUSH2 0x12B7 DUP4 PUSH2 0xDC5 JUMP JUMPDEST SWAP3 POP DUP3 DUP3 ADD SWAP1 POP DUP1 DUP3 GT ISZERO PUSH2 0x12CF JUMPI PUSH2 0x12CE PUSH2 0x1272 JUMP JUMPDEST JUMPDEST SWAP3 SWAP2 POP POP JUMP JUMPDEST PUSH2 0x12DE DUP2 PUSH2 0xE65 JUMP JUMPDEST DUP3 MSTORE POP POP JUMP JUMPDEST PUSH1 0x0 PUSH1 0x60 DUP3 ADD SWAP1 POP PUSH2 0x12F9 PUSH1 0x0 DUP4 ADD DUP7 PUSH2 0xE3B JUMP JUMPDEST PUSH2 0x1306 PUSH1 0x20 DUP4 ADD DUP6 PUSH2 0x12D5 JUMP JUMPDEST PUSH2 0x1313 PUSH1 0x40 DUP4 ADD DUP5 PUSH2 0xE3B JUMP JUMPDEST SWAP5 SWAP4 POP POP POP POP JUMP JUMPDEST PUSH32 0x4E487B7100000000000000000000000000000000000000000000000000000000 PUSH1 0x0 MSTORE PUSH1 0x12 PUSH1 0x4 MSTORE PUSH1 0x24 PUSH1 0x0 REVERT JUMPDEST PUSH1 0x0 PUSH2 0x1355 DUP3 PUSH2 0xDC5 JUMP JUMPDEST SWAP2 POP PUSH2 0x1360 DUP4 PUSH2 0xDC5 JUMP JUMPDEST SWAP3 POP DUP3 PUSH2 0x1370 JUMPI PUSH2 0x136F PUSH2 0x131B JUMP JUMPDEST JUMPDEST DUP3 DUP3 MOD SWAP1 POP SWAP3 SWAP2 POP POP JUMP JUMPDEST PUSH32 0x4E487B7100000000000000000000000000000000000000000000000000000000 PUSH1 0x0 MSTORE PUSH1 0x32 PUSH1 0x4 MSTORE PUSH1 0x24 PUSH1 0x0 REVERT JUMPDEST PUSH1 0x0 DUP2 SWAP1 POP SWAP3 SWAP2 POP POP JUMP JUMPDEST POP JUMP JUMPDEST PUSH1 0x0 PUSH2 0x13C5 PUSH1 0x0 DUP4 PUSH2 0x13AA JUMP JUMPDEST SWAP2 POP PUSH2 0x13D0 DUP3 PUSH2 0x13B5 JUMP JUMPDEST PUSH1 0x0 DUP3 ADD SWAP1 POP SWAP2 SWAP1 POP JUMP JUMPDEST PUSH1 0x0 PUSH2 0x13E6 DUP3 PUSH2 0x13B8 JUMP JUMPDEST SWAP2 POP DUP2 SWAP1 POP SWAP2 SWAP1 POP JUMP JUMPDEST PUSH32 0x4661696C656420746F2073656E64204574686572000000000000000000000000 PUSH1 0x0 DUP3 ADD MSTORE POP JUMP JUMPDEST PUSH1 0x0 PUSH2 0x1426 PUSH1 0x14 DUP4 PUSH2 0xF64 JUMP JUMPDEST SWAP2 POP PUSH2 0x1431 DUP3 PUSH2 0x13F0 JUMP JUMPDEST PUSH1 0x20 DUP3 ADD SWAP1 POP SWAP2 SWAP1 POP JUMP JUMPDEST PUSH1 0x0 PUSH1 0x20 DUP3 ADD SWAP1 POP DUP2 DUP2 SUB PUSH1 0x0 DUP4 ADD MSTORE PUSH2 0x1455 DUP2 PUSH2 0x1419 JUMP JUMPDEST SWAP1 POP SWAP2 SWAP1 POP JUMP JUMPDEST PUSH1 0x0 PUSH1 0x60 DUP3 ADD SWAP1 POP PUSH2 0x1471 PUSH1 0x0 DUP4 ADD DUP7 PUSH2 0xE3B JUMP JUMPDEST PUSH2 0x147E PUSH1 0x20 DUP4 ADD DUP6 PUSH2 0xD6A JUMP JUMPDEST PUSH2 0x148B PUSH1 0x40 DUP4 ADD DUP5 PUSH2 0xD0E JUMP JUMPDEST SWAP5 SWAP4 POP POP POP POP JUMP JUMPDEST PUSH1 0x0 DUP2 MLOAD SWAP1 POP PUSH2 0x14A2 DUP2 PUSH2 0xDCF JUMP JUMPDEST SWAP3 SWAP2 POP POP JUMP JUMPDEST PUSH1 0x0 PUSH1 0x20 DUP3 DUP5 SUB SLT ISZERO PUSH2 0x14BE JUMPI PUSH2 0x14BD PUSH2 0xD94 JUMP JUMPDEST JUMPDEST PUSH1 0x0 PUSH2 0x14CC DUP5 DUP3 DUP6 ADD PUSH2 0x1493 JUMP JUMPDEST SWAP2 POP POP SWAP3 SWAP2 POP POP JUMP JUMPDEST PUSH32 0x4E6F7420656E6F756768204C494E4B0000000000000000000000000000000000 PUSH1 0x0 DUP3 ADD MSTORE POP JUMP JUMPDEST PUSH1 0x0 PUSH2 0x150B PUSH1 0xF DUP4 PUSH2 0xF64 JUMP JUMPDEST SWAP2 POP PUSH2 0x1516 DUP3 PUSH2 0x14D5 JUMP JUMPDEST PUSH1 0x20 DUP3 ADD SWAP1 POP SWAP2 SWAP1 POP JUMP JUMPDEST PUSH1 0x0 PUSH1 0x20 DUP3 ADD SWAP1 POP DUP2 DUP2 SUB PUSH1 0x0 DUP4 ADD MSTORE PUSH2 0x153A DUP2 PUSH2 0x14FE JUMP JUMPDEST SWAP1 POP SWAP2 SWAP1 POP JUMP JUMPDEST PUSH1 0x0 PUSH1 0x40 DUP3 ADD SWAP1 POP PUSH2 0x1556 PUSH1 0x0 DUP4 ADD DUP6 PUSH2 0xD0E JUMP JUMPDEST PUSH2 0x1563 PUSH1 0x20 DUP4 ADD DUP5 PUSH2 0xE3B JUMP JUMPDEST SWAP4 SWAP3 POP POP POP JUMP JUMPDEST PUSH1 0x0 DUP2 MLOAD SWAP1 POP SWAP2 SWAP1 POP JUMP JUMPDEST PUSH1 0x0 DUP3 DUP3 MSTORE PUSH1 0x20 DUP3 ADD SWAP1 POP SWAP3 SWAP2 POP POP JUMP JUMPDEST PUSH1 0x0 JUMPDEST DUP4 DUP2 LT ISZERO PUSH2 0x15A4 JUMPI DUP1 DUP3 ADD MLOAD DUP2 DUP5 ADD MSTORE PUSH1 0x20 DUP2 ADD SWAP1 POP PUSH2 0x1589 JUMP JUMPDEST PUSH1 0x0 DUP5 DUP5 ADD MSTORE POP POP POP POP JUMP JUMPDEST PUSH1 0x0 PUSH1 0x1F NOT PUSH1 0x1F DUP4 ADD AND SWAP1 POP SWAP2 SWAP1 POP JUMP JUMPDEST PUSH1 0x0 PUSH2 0x15CC DUP3 PUSH2 0x156A JUMP JUMPDEST PUSH2 0x15D6 DUP2 DUP6 PUSH2 0x1575 JUMP JUMPDEST SWAP4 POP PUSH2 0x15E6 DUP2 DUP6 PUSH1 0x20 DUP7 ADD PUSH2 0x1586 JUMP JUMPDEST PUSH2 0x15EF DUP2 PUSH2 0x15B0 JUMP JUMPDEST DUP5 ADD SWAP2 POP POP SWAP3 SWAP2 POP POP JUMP JUMPDEST PUSH1 0x0 PUSH1 0x60 DUP3 ADD SWAP1 POP PUSH2 0x160F PUSH1 0x0 DUP4 ADD DUP7 PUSH2 0xD6A JUMP JUMPDEST PUSH2 0x161C PUSH1 0x20 DUP4 ADD DUP6 PUSH2 0xE3B JUMP JUMPDEST DUP2 DUP2 SUB PUSH1 0x40 DUP4 ADD MSTORE PUSH2 0x162E DUP2 DUP5 PUSH2 0x15C1 JUMP JUMPDEST SWAP1 POP SWAP5 SWAP4 POP POP POP POP JUMP JUMPDEST PUSH2 0x1641 DUP2 PUSH2 0xCCE JUMP JUMPDEST DUP2 EQ PUSH2 0x164C JUMPI PUSH1 0x0 DUP1 REVERT JUMPDEST POP JUMP JUMPDEST PUSH1 0x0 DUP2 MLOAD SWAP1 POP PUSH2 0x165E DUP2 PUSH2 0x1638 JUMP JUMPDEST SWAP3 SWAP2 POP POP JUMP JUMPDEST PUSH1 0x0 PUSH1 0x20 DUP3 DUP5 SUB SLT ISZERO PUSH2 0x167A JUMPI PUSH2 0x1679 PUSH2 0xD94 JUMP JUMPDEST JUMPDEST PUSH1 0x0 PUSH2 0x1688 DUP5 DUP3 DUP6 ADD PUSH2 0x164F JUMP JUMPDEST SWAP2 POP POP SWAP3 SWAP2 POP POP JUMP JUMPDEST PUSH1 0x0 PUSH1 0x80 DUP3 ADD SWAP1 POP PUSH2 0x16A6 PUSH1 0x0 DUP4 ADD DUP8 PUSH2 0xD0E JUMP JUMPDEST PUSH2 0x16B3 PUSH1 0x20 DUP4 ADD DUP7 PUSH2 0xE3B JUMP JUMPDEST PUSH2 0x16C0 PUSH1 0x40 DUP4 ADD DUP6 PUSH2 0xD6A JUMP JUMPDEST PUSH2 0x16CD PUSH1 0x60 DUP4 ADD DUP5 PUSH2 0xE3B JUMP JUMPDEST SWAP6 SWAP5 POP POP POP POP POP JUMP JUMPDEST PUSH1 0x0 DUP2 SWAP1 POP SWAP2 SWAP1 POP JUMP JUMPDEST PUSH2 0x16F1 PUSH2 0x16EC DUP3 PUSH2 0xD04 JUMP JUMPDEST PUSH2 0x16D6 JUMP JUMPDEST DUP3 MSTORE POP POP JUMP JUMPDEST PUSH1 0x0 DUP2 SWAP1 POP SWAP2 SWAP1 POP JUMP JUMPDEST PUSH2 0x1712 PUSH2 0x170D DUP3 PUSH2 0xDC5 JUMP JUMPDEST PUSH2 0x16F7 JUMP JUMPDEST DUP3 MSTORE POP POP JUMP JUMPDEST PUSH1 0x0 PUSH2 0x1724 DUP3 DUP6 PUSH2 0x16E0 JUMP JUMPDEST PUSH1 0x20 DUP3 ADD SWAP2 POP PUSH2 0x1734 DUP3 DUP5 PUSH2 0x1701 JUMP JUMPDEST PUSH1 0x20 DUP3 ADD SWAP2 POP DUP2 SWAP1 POP SWAP4 SWAP3 POP POP POP JUMP INVALID LOG2 PUSH5 0x6970667358 0x22 SLT KECCAK256 PUSH11 0xE24FADB9FB8611C04777BF 0xC 0x2E DUP9 DUP15 PUSH12 0xD56CB154D6ABE45DB9FA91A9 0xFB 0x4F PUSH2 0x6473 PUSH16 0x6C634300081400330000000000000000 "},"methodIdentifiers":{"fee()":"ddca3f43","gameId()":"d7c81b55","gameStarted()":"5e123ce4","joinGame()":"d4f77b1c","keyHash()":"61728f39","owner()":"8da5cb5b","players(uint256)":"f71d96cb","rawFulfillRandomness(bytes32,uint256)":"94985ddd","renounceOwnership()":"715018a6","startGame(uint8,uint256)":"e849c38e","transferOwnership(address)":"f2fde38b"}}}}}